{
  "address": "0x6B8411faeb19E4AA5826147f5741C61472AF0543",
  "abi": [
    {
      "inputs": [],
      "name": "counter",
      "outputs": [
        {
          "internalType": "uint256",
          "name": "",
          "type": "uint256"
        }
      ],
      "stateMutability": "view",
      "type": "function"
    },
    {
      "inputs": [],
      "name": "incr",
      "outputs": [],
      "stateMutability": "nonpayable",
      "type": "function"
    }
  ],
  "transactionHash": "0x6efb5c8ec22a817b1917931c476dc6083ce618cd34ad2db91d813410579a7c94",
  "args": [],
  "numDeployments": 1,
  "solcInputHash": "1dcf665b3de3a5cde488958c12830cc1",
  "bytecode": "0x60806040526000805534801561001457600080fd5b50610151806100246000396000f3fe608060405234801561001057600080fd5b50600436106100365760003560e01c8063119fbbd41461003b57806361bc221a14610045575b600080fd5b610043610063565b005b61004d61007e565b60405161005a919061009d565b60405180910390f35b600160008082825461007591906100e7565b92505081905550565b60005481565b6000819050919050565b61009781610084565b82525050565b60006020820190506100b2600083018461008e565b92915050565b7f4e487b7100000000000000000000000000000000000000000000000000000000600052601160045260246000fd5b60006100f282610084565b91506100fd83610084565b9250828201905080821115610115576101146100b8565b5b9291505056fea2646970667358221220b1d9d7484d5b1bd504c5f351dad1fa17b20a822057f8cd11b74fbb060b8c5a2264736f6c63430008110033",
  "devdoc": {
    "kind": "dev",
    "methods": {},
    "version": 1
  },
  "userdoc": {
    "kind": "user",
    "methods": {},
    "version": 1
  },
  "storageLayout": {
    "storage": [
      {
        "astId": 4,
        "contract": "contracts/Box.sol:Box",
        "label": "counter",
        "offset": 0,
        "slot": "0",
        "type": "t_uint256"
      }
    ],
    "types": {
      "t_uint256": {
        "encoding": "inplace",
        "label": "uint256",
        "numberOfBytes": "32"
      }
    }
  }
}