{
  "address": "0x2401643d02413Ec0Fc0bD782aeB646ebCDB768AE",
  "abi": [
    {
      "inputs": [],
      "stateMutability": "nonpayable",
      "type": "constructor"
    },
    {
      "anonymous": false,
      "inputs": [
        {
          "indexed": true,
          "internalType": "bytes32",
          "name": "role",
          "type": "bytes32"
        },
        {
          "indexed": true,
          "internalType": "bytes32",
          "name": "previousAdminRole",
          "type": "bytes32"
        },
        {
          "indexed": true,
          "internalType": "bytes32",
          "name": "newAdminRole",
          "type": "bytes32"
        }
      ],
      "name": "RoleAdminChanged",
      "type": "event"
    },
    {
      "anonymous": false,
      "inputs": [
        {
          "indexed": true,
          "internalType": "bytes32",
          "name": "role",
          "type": "bytes32"
        },
        {
          "indexed": true,
          "internalType": "address",
          "name": "account",
          "type": "address"
        },
        {
          "indexed": true,
          "internalType": "address",
          "name": "sender",
          "type": "address"
        }
      ],
      "name": "RoleGranted",
      "type": "event"
    },
    {
      "anonymous": false,
      "inputs": [
        {
          "indexed": true,
          "internalType": "bytes32",
          "name": "role",
          "type": "bytes32"
        },
        {
          "indexed": true,
          "internalType": "address",
          "name": "account",
          "type": "address"
        },
        {
          "indexed": true,
          "internalType": "address",
          "name": "sender",
          "type": "address"
        }
      ],
      "name": "RoleRevoked",
      "type": "event"
    },
    {
      "inputs": [],
      "name": "DEFAULT_ADMIN_ROLE",
      "outputs": [
        {
          "internalType": "bytes32",
          "name": "",
          "type": "bytes32"
        }
      ],
      "stateMutability": "view",
      "type": "function"
    },
    {
      "inputs": [],
      "name": "EHSAN_ROLE",
      "outputs": [
        {
          "internalType": "bytes32",
          "name": "",
          "type": "bytes32"
        }
      ],
      "stateMutability": "view",
      "type": "function"
    },
    {
      "inputs": [],
      "name": "counter",
      "outputs": [
        {
          "internalType": "uint256",
          "name": "",
          "type": "uint256"
        }
      ],
      "stateMutability": "view",
      "type": "function"
    },
    {
      "inputs": [
        {
          "internalType": "bytes32",
          "name": "role",
          "type": "bytes32"
        }
      ],
      "name": "getRoleAdmin",
      "outputs": [
        {
          "internalType": "bytes32",
          "name": "",
          "type": "bytes32"
        }
      ],
      "stateMutability": "view",
      "type": "function"
    },
    {
      "inputs": [
        {
          "internalType": "bytes32",
          "name": "role",
          "type": "bytes32"
        },
        {
          "internalType": "address",
          "name": "account",
          "type": "address"
        }
      ],
      "name": "grantRole",
      "outputs": [],
      "stateMutability": "nonpayable",
      "type": "function"
    },
    {
      "inputs": [
        {
          "internalType": "bytes32",
          "name": "role",
          "type": "bytes32"
        },
        {
          "internalType": "address",
          "name": "account",
          "type": "address"
        }
      ],
      "name": "hasRole",
      "outputs": [
        {
          "internalType": "bool",
          "name": "",
          "type": "bool"
        }
      ],
      "stateMutability": "view",
      "type": "function"
    },
    {
      "inputs": [],
      "name": "incr",
      "outputs": [],
      "stateMutability": "nonpayable",
      "type": "function"
    },
    {
      "inputs": [
        {
          "internalType": "bytes32",
          "name": "role",
          "type": "bytes32"
        },
        {
          "internalType": "address",
          "name": "account",
          "type": "address"
        }
      ],
      "name": "renounceRole",
      "outputs": [],
      "stateMutability": "nonpayable",
      "type": "function"
    },
    {
      "inputs": [
        {
          "internalType": "bytes32",
          "name": "role",
          "type": "bytes32"
        },
        {
          "internalType": "address",
          "name": "account",
          "type": "address"
        }
      ],
      "name": "revokeRole",
      "outputs": [],
      "stateMutability": "nonpayable",
      "type": "function"
    },
    {
      "inputs": [
        {
          "internalType": "bytes4",
          "name": "interfaceId",
          "type": "bytes4"
        }
      ],
      "name": "supportsInterface",
      "outputs": [
        {
          "internalType": "bool",
          "name": "",
          "type": "bool"
        }
      ],
      "stateMutability": "view",
      "type": "function"
    },
    {
      "inputs": [],
      "name": "testAdmin",
      "outputs": [],
      "stateMutability": "nonpayable",
      "type": "function"
    },
    {
      "inputs": [],
      "name": "testAdminAndEhsan",
      "outputs": [],
      "stateMutability": "nonpayable",
      "type": "function"
    }
  ],
  "transactionHash": "0x97087a5cc21601fa879df62d07e86e35eee97f94c745f7cc3b30d47b1c220acc",
  "args": [],
  "numDeployments": 3,
  "solcInputHash": "5114827787f86a85bdd40519c82beb57",
  "bytecode": "0x6080604052600060015534801561001557600080fd5b506100296000801b3361005e60201b60201c565b6100597f096d346709ae4f365e659bf9399208be992b4b5a9f15284fd85ba34fc14812503361005e60201b60201c565b6101bc565b61006e828261014a60201b60201c565b61014657600160008084815260200190815260200160002060000160008373ffffffffffffffffffffffffffffffffffffffff1673ffffffffffffffffffffffffffffffffffffffff16815260200190815260200160002060006101000a81548160ff0219169083151502179055506100eb6101b460201b60201c565b73ffffffffffffffffffffffffffffffffffffffff168173ffffffffffffffffffffffffffffffffffffffff16837f2f8788117e7eff1d82e926ec794901d17c78024a50270940304540a733656f0d60405160405180910390a45b5050565b600080600084815260200190815260200160002060000160008373ffffffffffffffffffffffffffffffffffffffff1673ffffffffffffffffffffffffffffffffffffffff16815260200190815260200160002060009054906101000a900460ff16905092915050565b600033905090565b611039806101cb6000396000f3fe608060405234801561001057600080fd5b50600436106100b45760003560e01c80638bfa1870116100715780638bfa18701461017957806391d14854146101975780639d96732b146101c7578063a217fddf146101d1578063a9848664146101ef578063d547741f146101f9576100b4565b806301ffc9a7146100b9578063119fbbd4146100e9578063248a9ca3146100f35780632f2ff15d1461012357806336568abe1461013f57806361bc221a1461015b575b600080fd5b6100d360048036038101906100ce9190610a57565b610215565b6040516100e09190610a9f565b60405180910390f35b6100f161028f565b005b61010d60048036038101906101089190610af0565b6102d5565b60405161011a9190610b2c565b60405180910390f35b61013d60048036038101906101389190610ba5565b6102f4565b005b61015960048036038101906101549190610ba5565b610315565b005b610163610398565b6040516101709190610bfe565b60405180910390f35b61018161039e565b60405161018e9190610b2c565b60405180910390f35b6101b160048036038101906101ac9190610ba5565b6103c2565b6040516101be9190610a9f565b60405180910390f35b6101cf61042c565b005b6101d9610456565b6040516101e69190610b2c565b60405180910390f35b6101f761045d565b005b610213600480360381019061020e9190610ba5565b6104a4565b005b60007f7965db0b000000000000000000000000000000000000000000000000000000007bffffffffffffffffffffffffffffffffffffffffffffffffffffffff1916827bffffffffffffffffffffffffffffffffffffffffffffffffffffffff191614806102885750610287826104c5565b5b9050919050565b7f096d346709ae4f365e659bf9399208be992b4b5a9f15284fd85ba34fc14812506102b98161052f565b60018060008282546102cb9190610c48565b9250508190555050565b6000806000838152602001908152602001600020600101549050919050565b6102fd826102d5565b6103068161052f565b6103108383610543565b505050565b61031d610623565b73ffffffffffffffffffffffffffffffffffffffff168173ffffffffffffffffffffffffffffffffffffffff161461038a576040517f08c379a000000000000000000000000000000000000000000000000000000000815260040161038190610cff565b60405180910390fd5b610394828261062b565b5050565b60015481565b7f096d346709ae4f365e659bf9399208be992b4b5a9f15284fd85ba34fc148125081565b600080600084815260200190815260200160002060000160008373ffffffffffffffffffffffffffffffffffffffff1673ffffffffffffffffffffffffffffffffffffffff16815260200190815260200160002060009054906101000a900460ff16905092915050565b6000801b6104398161052f565b60046001600082825461044c9190610c48565b9250508190555050565b6000801b81565b7f096d346709ae4f365e659bf9399208be992b4b5a9f15284fd85ba34fc14812506104878161052f565b60026001600082825461049a9190610c48565b9250508190555050565b6104ad826102d5565b6104b68161052f565b6104c0838361062b565b505050565b60007f01ffc9a7000000000000000000000000000000000000000000000000000000007bffffffffffffffffffffffffffffffffffffffffffffffffffffffff1916827bffffffffffffffffffffffffffffffffffffffffffffffffffffffff1916149050919050565b6105408161053b610623565b61070c565b50565b61054d82826103c2565b61061f57600160008084815260200190815260200160002060000160008373ffffffffffffffffffffffffffffffffffffffff1673ffffffffffffffffffffffffffffffffffffffff16815260200190815260200160002060006101000a81548160ff0219169083151502179055506105c4610623565b73ffffffffffffffffffffffffffffffffffffffff168173ffffffffffffffffffffffffffffffffffffffff16837f2f8788117e7eff1d82e926ec794901d17c78024a50270940304540a733656f0d60405160405180910390a45b5050565b600033905090565b61063582826103c2565b1561070857600080600084815260200190815260200160002060000160008373ffffffffffffffffffffffffffffffffffffffff1673ffffffffffffffffffffffffffffffffffffffff16815260200190815260200160002060006101000a81548160ff0219169083151502179055506106ad610623565b73ffffffffffffffffffffffffffffffffffffffff168173ffffffffffffffffffffffffffffffffffffffff16837ff6391f5c32d9c69d2a47ea670b442974b53935d1edc7fd64eb21e047a839171b60405160405180910390a45b5050565b61071682826103c2565b61078d5761072381610791565b6107318360001c60206107be565b604051602001610742929190610e28565b6040516020818303038152906040526040517f08c379a00000000000000000000000000000000000000000000000000000000081526004016107849190610eac565b60405180910390fd5b5050565b60606107b78273ffffffffffffffffffffffffffffffffffffffff16601460ff166107be565b9050919050565b6060600060028360026107d19190610ece565b6107db9190610c48565b67ffffffffffffffff8111156107f4576107f3610f10565b5b6040519080825280601f01601f1916602001820160405280156108265781602001600182028036833780820191505090505b5090507f30000000000000000000000000000000000000000000000000000000000000008160008151811061085e5761085d610f3f565b5b60200101907effffffffffffffffffffffffffffffffffffffffffffffffffffffffffffff1916908160001a9053507f7800000000000000000000000000000000000000000000000000000000000000816001815181106108c2576108c1610f3f565b5b60200101907effffffffffffffffffffffffffffffffffffffffffffffffffffffffffffff1916908160001a905350600060018460026109029190610ece565b61090c9190610c48565b90505b60018111156109ac577f3031323334353637383961626364656600000000000000000000000000000000600f86166010811061094e5761094d610f3f565b5b1a60f81b82828151811061096557610964610f3f565b5b60200101907effffffffffffffffffffffffffffffffffffffffffffffffffffffffffffff1916908160001a905350600485901c9450806109a590610f6e565b905061090f565b50600084146109f0576040517f08c379a00000000000000000000000000000000000000000000000000000000081526004016109e790610fe3565b60405180910390fd5b8091505092915050565b600080fd5b60007fffffffff0000000000000000000000000000000000000000000000000000000082169050919050565b610a34816109ff565b8114610a3f57600080fd5b50565b600081359050610a5181610a2b565b92915050565b600060208284031215610a6d57610a6c6109fa565b5b6000610a7b84828501610a42565b91505092915050565b60008115159050919050565b610a9981610a84565b82525050565b6000602082019050610ab46000830184610a90565b92915050565b6000819050919050565b610acd81610aba565b8114610ad857600080fd5b50565b600081359050610aea81610ac4565b92915050565b600060208284031215610b0657610b056109fa565b5b6000610b1484828501610adb565b91505092915050565b610b2681610aba565b82525050565b6000602082019050610b416000830184610b1d565b92915050565b600073ffffffffffffffffffffffffffffffffffffffff82169050919050565b6000610b7282610b47565b9050919050565b610b8281610b67565b8114610b8d57600080fd5b50565b600081359050610b9f81610b79565b92915050565b60008060408385031215610bbc57610bbb6109fa565b5b6000610bca85828601610adb565b9250506020610bdb85828601610b90565b9150509250929050565b6000819050919050565b610bf881610be5565b82525050565b6000602082019050610c136000830184610bef565b92915050565b7f4e487b7100000000000000000000000000000000000000000000000000000000600052601160045260246000fd5b6000610c5382610be5565b9150610c5e83610be5565b9250828201905080821115610c7657610c75610c19565b5b92915050565b600082825260208201905092915050565b7f416363657373436f6e74726f6c3a2063616e206f6e6c792072656e6f756e636560008201527f20726f6c657320666f722073656c660000000000000000000000000000000000602082015250565b6000610ce9602f83610c7c565b9150610cf482610c8d565b604082019050919050565b60006020820190508181036000830152610d1881610cdc565b9050919050565b600081905092915050565b7f416363657373436f6e74726f6c3a206163636f756e7420000000000000000000600082015250565b6000610d60601783610d1f565b9150610d6b82610d2a565b601782019050919050565b600081519050919050565b60005b83811015610d9f578082015181840152602081019050610d84565b60008484015250505050565b6000610db682610d76565b610dc08185610d1f565b9350610dd0818560208601610d81565b80840191505092915050565b7f206973206d697373696e6720726f6c6520000000000000000000000000000000600082015250565b6000610e12601183610d1f565b9150610e1d82610ddc565b601182019050919050565b6000610e3382610d53565b9150610e3f8285610dab565b9150610e4a82610e05565b9150610e568284610dab565b91508190509392505050565b6000601f19601f8301169050919050565b6000610e7e82610d76565b610e888185610c7c565b9350610e98818560208601610d81565b610ea181610e62565b840191505092915050565b60006020820190508181036000830152610ec68184610e73565b905092915050565b6000610ed982610be5565b9150610ee483610be5565b9250828202610ef281610be5565b91508282048414831517610f0957610f08610c19565b5b5092915050565b7f4e487b7100000000000000000000000000000000000000000000000000000000600052604160045260246000fd5b7f4e487b7100000000000000000000000000000000000000000000000000000000600052603260045260246000fd5b6000610f7982610be5565b915060008203610f8c57610f8b610c19565b5b600182039050919050565b7f537472696e67733a20686578206c656e67746820696e73756666696369656e74600082015250565b6000610fcd602083610c7c565b9150610fd882610f97565b602082019050919050565b60006020820190508181036000830152610ffc81610fc0565b905091905056fea264697066735822122059903d12c1fa0a1a4b98e503d308086053e3e9e881a160577a4da5bc1ae2317b64736f6c63430008130033",
  "devdoc": {
    "events": {
      "RoleAdminChanged(bytes32,bytes32,bytes32)": {
        "details": "Emitted when `newAdminRole` is set as ``role``'s admin role, replacing `previousAdminRole` `DEFAULT_ADMIN_ROLE` is the starting admin for all roles, despite {RoleAdminChanged} not being emitted signaling this. _Available since v3.1._"
      },
      "RoleGranted(bytes32,address,address)": {
        "details": "Emitted when `account` is granted `role`. `sender` is the account that originated the contract call, an admin role bearer except when using {AccessControl-_setupRole}."
      },
      "RoleRevoked(bytes32,address,address)": {
        "details": "Emitted when `account` is revoked `role`. `sender` is the account that originated the contract call:   - if using `revokeRole`, it is the admin role bearer   - if using `renounceRole`, it is the role bearer (i.e. `account`)"
      }
    },
    "kind": "dev",
    "methods": {
      "getRoleAdmin(bytes32)": {
        "details": "Returns the admin role that controls `role`. See {grantRole} and {revokeRole}. To change a role's admin, use {_setRoleAdmin}."
      },
      "grantRole(bytes32,address)": {
        "details": "Grants `role` to `account`. If `account` had not been already granted `role`, emits a {RoleGranted} event. Requirements: - the caller must have ``role``'s admin role. May emit a {RoleGranted} event."
      },
      "hasRole(bytes32,address)": {
        "details": "Returns `true` if `account` has been granted `role`."
      },
      "renounceRole(bytes32,address)": {
        "details": "Revokes `role` from the calling account. Roles are often managed via {grantRole} and {revokeRole}: this function's purpose is to provide a mechanism for accounts to lose their privileges if they are compromised (such as when a trusted device is misplaced). If the calling account had been revoked `role`, emits a {RoleRevoked} event. Requirements: - the caller must be `account`. May emit a {RoleRevoked} event."
      },
      "revokeRole(bytes32,address)": {
        "details": "Revokes `role` from `account`. If `account` had been granted `role`, emits a {RoleRevoked} event. Requirements: - the caller must have ``role``'s admin role. May emit a {RoleRevoked} event."
      },
      "supportsInterface(bytes4)": {
        "details": "See {IERC165-supportsInterface}."
      }
    },
    "version": 1
  },
  "userdoc": {
    "kind": "user",
    "methods": {},
    "version": 1
  },
  "storageLayout": {
    "storage": [
      {
        "astId": 24,
        "contract": "contracts/Box.sol:Box",
        "label": "_roles",
        "offset": 0,
        "slot": "0",
        "type": "t_mapping(t_bytes32,t_struct(RoleData)19_storage)"
      },
      {
        "astId": 1654,
        "contract": "contracts/Box.sol:Box",
        "label": "counter",
        "offset": 0,
        "slot": "1",
        "type": "t_uint256"
      }
    ],
    "types": {
      "t_address": {
        "encoding": "inplace",
        "label": "address",
        "numberOfBytes": "20"
      },
      "t_bool": {
        "encoding": "inplace",
        "label": "bool",
        "numberOfBytes": "1"
      },
      "t_bytes32": {
        "encoding": "inplace",
        "label": "bytes32",
        "numberOfBytes": "32"
      },
      "t_mapping(t_address,t_bool)": {
        "encoding": "mapping",
        "key": "t_address",
        "label": "mapping(address => bool)",
        "numberOfBytes": "32",
        "value": "t_bool"
      },
      "t_mapping(t_bytes32,t_struct(RoleData)19_storage)": {
        "encoding": "mapping",
        "key": "t_bytes32",
        "label": "mapping(bytes32 => struct AccessControl.RoleData)",
        "numberOfBytes": "32",
        "value": "t_struct(RoleData)19_storage"
      },
      "t_struct(RoleData)19_storage": {
        "encoding": "inplace",
        "label": "struct AccessControl.RoleData",
        "members": [
          {
            "astId": 16,
            "contract": "contracts/Box.sol:Box",
            "label": "members",
            "offset": 0,
            "slot": "0",
            "type": "t_mapping(t_address,t_bool)"
          },
          {
            "astId": 18,
            "contract": "contracts/Box.sol:Box",
            "label": "adminRole",
            "offset": 0,
            "slot": "1",
            "type": "t_bytes32"
          }
        ],
        "numberOfBytes": "64"
      },
      "t_uint256": {
        "encoding": "inplace",
        "label": "uint256",
        "numberOfBytes": "32"
      }
    }
  }
}